:100000000C947B010C94AA040C9498010C94980114
:100010000C9498010C9498010C9498010C949801FC
:100020000C9498010C9498010C9498010C949801EC
:100030000C9498010C9498010C9498010C949801DC
:100040000C9498010C9498010C9498010C949801CC
:100050000C9498010C9498010C9498010C949801BC
:100060000C9498010C94980108000000BE92244959
:10007000123EABAAAA2ABECDCCCC4C3E00000080DA
:10008000BEABAAAAAA3E00000000BF000000803F4D
:100090000000000000084178D3BB4387D1133D190D
:1000A0000E3CC3BD4282AD2B3E68EC8276BED98F3A
:1000B000E1A93E4C80EFFFBE01C4FF7F3F0000007E
:1000C000000007634236B79BD8A71A39685618AEA6
:1000D000BAAB558C1D3CB7CC5763BD6DEDFD753E7D
:1000E000F6177231BF000000803F11AE00A8011F5B
:1000F0002001004000D30100A100C800DA01028104
:10010000017FA400A600D50180D901C2DB01208DAA
:1001100001142E00AF0000000000008181188181D1
:100120000007000700147F147F14242A7F2A12235B
:100130001308646236495522500005030000001C74
:100140002241000041221C0014083E081408083E09
:100150000808005030000008080808080060600027
:100160000020100804023E5149453E00427F4000F5
:1001700042615149462141454B311814127F1027E5
:10018000454545393C4A494930017109050336491D
:10019000494936064949291E0036360000005636C0
:1001A00000000814224100141414141400412214F5
:1001B000080201510906324979413E7E1111117E32
:1001C0007F494949363E414141227F4141221C7FBE
:1001D000494949417F090909013E4149497A7F0856
:1001E00008087F00417F41002040413F017F081403
:1001F00022417F404040407F020C027F7F04081074
:100200007F3E4141413E7F090909063E4151215E41
:100210007F09192946464949493101017F01013FBA
:100220004040403F1F2040201F3F4038403F631464
:1002300008146307087008076151494543007F416E
:10024000410002040810200041417F000402010225
:1002500004404040404000010204002054545478BF
:100260007F484444383844444420384444487F3824
:1002700054545418087E0901020C5252523E7F0811
:1002800004047800447D40002040443D007F102855
:10029000440000417F40007C041804787C0804047A
:1002A0007838444444387C14141408081414147C1A
:1002B0007C080404084854545420043F4440203C23
:1002C0004040207C1C2040201C3C4030403C4428C6
:1002D0001028440C5050503C4464544C44000836A0
:1002E000410000007F00000041360800100808109F
:1002F00008000000000011241FBECFEFD8E0DEBFD1
:10030000CDBF11E0A0E0B1E0E0E9F9E102C0059065
:100310000D92A63DB107D9F724E0A6EDB1E001C0EA
:100320001D92A230B207E1F70E94A9030C94C60CFB
:100330000C94000087E880937A0080E480937C002E
:100340000895ECE7F0E09081907F8F70892B808397
:100350008AE090E00E94BE01EAE7F0E080818064DC
:100360008083808184FFFDCFEAE7F0E080818061B7
:10037000808380917800909179000895009719F01A
:1003800000000197E9F70895009741F0E9EFF0E0E8
:100390003197F1F700C000000197C1F70895CF929F
:1003A000DF92EF92FF92CF93DF93EC01892B11F450
:1003B000C1E0D0E06FEF73E06C1B7D0B072E000CEB
:1003C000880B990B0E94560720E030E040E251E490
:1003D0000E943A086B017C01BE01DD0F880B990B6E
:1003E0000E9456079B01AC01C701B6010E94AC06F2
:1003F000DF91CF91FF90EF90DF90CF900895CF9253
:10040000DF92EF92FF92CF93DF93C2E3D0E0C12C53
:10041000D12C760180E00E94A1010E94CF019B01B6
:10042000AC01C701B6010E9440066B017C01219717
:1004300089F720E030E048E452E40E94AC062EEA5E
:1004400037E44DE151E40E94AC06DF91CF91FF907B
:10045000EF90DF90CF900895CF92DF92EF92FF92CE
:10046000CF93DF93C5E0D0E0C12CD12C760180E0A2
:100470000E94A1010E94CF019B01AC01C701B601FE
:100480000E9440066B017C0182E390E00E94C4015F
:10049000219769F720E030E040EA50E4C701B60157
:1004A0000E94AC06DF91CF91FF90EF90DF90CF904C
:1004B0000895CF93DF93EA010E94E2072C813D81EA
:1004C0004E815F810E943F06288539854A855B857C
:1004D0000E94AC06288139814A815B810E944006D6
:1004E0009B01AC0160E070E080E291E40E94A7080B
:1004F0000E941E07CB01DF91CF9108954115510550
:1005000029F44CE051E00E94590208954130510510
:1005100029F440E051E00E945902089580E090E003
:100520000895249A2C982FEF89EF90E02150804075
:100530009040E1F700C000002C9A089524981C997F
:10054000FECF1C9BFECF1C99FECF089528E030E023
:1005500080E01C9BFECF90EA9A95F1F71C9B03C0AC
:10056000880F816001C0880F1C99FECF215031098E
:1005700081F708950F931F93CF93DF930E942C026E
:100580002091FE033091FF0340910004509101043B
:100590000E94AC066093E3037093E4038093E50349
:1005A0009093E60340E050E00E947E029093DE03C9
:1005B0008093DD030E942C022091FE033091FF0303
:1005C00040910004509101040E94AC066093DF0347
:1005D0007093E0038093E1039093E20341E050E0E5
:1005E0000E947E029093E8038093E7030E949102A9
:1005F0000E949E020E94A6028093FC030E94A60213
:100600008093F9030E94A6028093FB030E94A60236
:100610008093FD030E94A6028093FA039091FC034D
:100620002091F90330E0290F311D9091FB03290F30
:10063000311D9091FD03290F311D90E028173907D6
:1006400071F00E946F0561E080E00E947A0588E108
:1006500091E00E94D6058CE30E944E0575C00E9471
:100660006F0560E080E00E947A058EE191E00E94D3
:10067000D6058091DE038F938091DD038F9304E292
:1006800011E01F930F93C9EED3E0DF93CF930E9445
:10069000DC09CE010E94D60561E080E00E947A0567
:1006A0008BE291E00E94D6058091E8038F938091C0
:1006B000E7038F931F930F93DF93CF930E94DC097F
:1006C000CE010E94D60562E080E00E947A0583E3B5
:1006D00091E00E94D6058091F9031F928F9380913B
:1006E000FC031F928F938EE391E09F938F93DF9390
:1006F000CF930E94DC09CE010E94D60563E080E022
:100700000E947A0586E491E00E94D6058091FD035F
:100710001F928F938091FB031F928F938DE491E042
:100720009F938F93DF93CF930E94DC09CE010E94A9
:10073000D6058CE30E944E058DB79EB74C960FB63A
:10074000F8949EBF0FBE8DBFDF91CF911F910F9187
:100750000895259A52985A9A85B18E6085B97894F1
:10076000E9E6F0E080818260808380818E7F8083F3
:10077000E89A0E949A018CE30E9405050E946F0589
:1007800061E087E00E947A0584E591E00E94D60549
:100790008CE30E944E052FEF8BE792E921508040B9
:1007A0009040E1F700C000000E94FF016093FE034B
:1007B0007093FF0380930004909301040E94BA0297
:1007C0002FEF83ED90E3215080409040E1F700C08F
:1007D00000008091D601882389F30E946F0561E0B3
:1007E00080E00E947A058CE591E00E94D6058CE3BA
:1007F0000E944E052FEF8BE792E9215080409040F8
:10080000E1F700C000001A9920C08091D901811140
:100810001CC081E08093D9012D9A0E946F0560E091
:1008200080E00E947A0589E791E00E94D6058CE37A
:100830000E944E052FEF83E294EF215080409040BC
:10084000E1F700C000002D9803C01A991092D90159
:10085000199920C08091D80181111CC081E080933A
:10086000D8012D9A0E946F0560E080E00E947A0511
:100870008FE891E00E94D6058CE30E944E052FEF91
:1008800083E294EF215080409040E1F700C00000E7
:100890002D9803C019991092D8011B9920C08091FE
:1008A000DA0181111CC081E08093DA012D9A0E9447
:1008B0006F0560E080E00E947A058BEA91E00E947B
:1008C000D6058CE30E944E052FEF83E294EF215072
:1008D00080409040E1F700C000002D9803C01B99B4
:1008E0001092DA018091DD039091DE038634910548
:1008F0004CF58091E7039091E80386349105ECF480
:1009000026C081E08093D7012D9A0E946F0560E098
:1009100080E00E947A0582EC91E00E94D6058CE38B
:100920000E944E052FEF83E294EF215080409040CB
:10093000E1F700C000002D9841CF8091D7018111CF
:100940003DCFDFCF8091D701811138CFDACF109220
:10095000D70134CF1F920F920FB60F9211242F930D
:100960003F934F935F936F937F938F939F93AF9337
:10097000BF93EF93FF934A9BFECF8091D6018823CC
:1009800019F01092D60119C081E08093D6010E941F
:100990006F0561E080E00E947A058CE591E00E949D
:1009A000D6058CE30E944E052FEF8BE792E921508C
:1009B00080409040E1F700C00000FF91EF91BF91AF
:1009C000AF919F918F917F916F915F914F913F91E7
:1009D0002F910F900FBE0F901F901895CF93C82F97
:1009E0000E94F105811103C08C2F0E941006CF9147
:1009F0000895CF93C82F80E80E942606811103C076
:100A00008C2F0E942606CF910895DF92EF92FF92DD
:100A10000F931F93CF93DF93C82FEAEEF0E0D490AB
:100A20000E94E5058C2F0E94EE04811129C00F2E33
:100A3000FBEEEF2EF0E0FF2EF02D1DC0E70121961A
:100A4000F70184910E94F90481111CC0FE010491F8
:100A500010E00E5F1F4F0E0D1F1D219607C0FE01F7
:100A600084910E94F904219681110EC07E01C01765
:100A7000D107A9F7DA94D110E1CF0E943B0605C057
:100A8000D82E03C0D82E01C0D82E8D2DDF91CF9146
:100A90001F910F91FF90EF90DF9008950F931F9398
:100AA000CF93DF930E94EE04811114C080E40E9472
:100AB000260681110FC0CBEDD1E00BED13E089913B
:100AC0000E942606811106C0C017D107C1F70E94F7
:100AD0003B0680E0DF91CF911F910F91089580E058
:100AE00092E0EBEDF1E0DF019C011D9221503040DE
:100AF000E1F7089590E020E8629F800D911D112498
:100B00009093DC038093DB0308958091DB03909145
:100B1000DC039C01220F232F221F330B31958A5FA8
:100B2000922F979599279795891B7AF4243078F41A
:100B3000223078F42F5F80E8289F900111243093B1
:100B4000DC032093DB0380E0089580E0089581E0DA
:100B5000089580E00895CF93C82F0E9485058130C5
:100B600019F14091DB035091DC03EC2FF0E0B097DA
:100B7000CF01880F991F880F991FE80FF91FEA5EB0
:100B8000FE4FDA01A552BE4F9A0120523E4F84918A
:100B90008D933196A217B307D1F74A5F5F4F5093F9
:100BA000DC034093DB0380E0CF910895CF93DF9384
:100BB000EC018881882331F021960E94AB05899150
:100BC0008111FBCFDF91CF91089582E08093B8002F
:100BD000E9EBF0E08081908182708160892B8083D5
:100BE0000895E9EBF0E080818775808384EA809343
:100BF000BC00ECEBF0E080818823ECF78091B90039
:100C0000887F883049F08091B900887F803131F049
:100C10008091B900887F089580E0089580E008956C
:100C2000880F8093BB0084E88093BC00ECEBF0E07D
:100C300080818823ECF78091B900887F883121F08A
:100C40008091B900887F089580E008958093BB006B
:100C500084E88093BC00ECEBF0E080818823ECF723
:100C60008091B900887F883221F08091B900887F17
:100C7000089580E0089584E98093BC000895505859
:100C8000BB27AA270E9457060C94A8070E949A0720
:100C900038F00E94A10720F039F49F3F19F426F4A0
:100CA0000C9497070EF4E095E7FB0C949107E92F5D
:100CB0000E94B90758F3BA176207730784079507AC
:100CC00020F079F4A6F50C94DB070EF4E0950B2EDA
:100CD000BA2FA02D0B01B90190010C01CA01A0018E
:100CE0001124FF27591B99F0593F50F4503E68F1E9
:100CF0001A16F040A22F232F342F4427585FF3CF2A
:100D0000469537952795A795F0405395C9F77EF4FA
:100D10001F16BA0B620B730B840BBAF09150A1F043
:100D2000FF0FBB1F661F771F881FC2F70EC0BA0FC9
:100D3000621F731F841F48F4879577956795B79551
:100D4000F7959E3F08F0B0CF9395880F08F099274C
:100D5000EE0F9795879508950E94C0060C94A807FA
:100D60000E94A10758F00E949A0740F029F45F3FC3
:100D700029F00C94910751110C94DC070C949707FF
:100D80000E94B90768F39923B1F3552391F3951B9A
:100D9000550BBB27AA2762177307840738F09F5F9C
:100DA0005F4F220F331F441FAA1FA9F335D00E2E09
:100DB0003AF0E0E832D091505040E695001CCAF776
:100DC0002BD0FE2F29D0660F771F881FBB1F261739
:100DD00037074807AB07B0E809F0BB0B802DBF0110
:100DE000FF2793585F4F3AF09E3F510578F00C94DF
:100DF00091070C94DC075F3FE4F3983ED4F38695AB
:100E000077956795B795F7959F5FC9F7880F911DFF
:100E10009695879597F90895E1E0660F771F881FEB
:100E2000BB1F621773078407BA0720F0621B730B9E
:100E3000840BBA0BEE1F88F7E09508950E942507F2
:100E40006894B1110C94DC0708950E94C10788F0E2
:100E50009F5798F0B92F9927B751B0F0E1F0660F7E
:100E6000771F881F991F1AF0BA95C9F714C0B130BF
:100E700091F00E94DB07B1E008950C94DB07672F27
:100E8000782F8827B85F39F0B93FCCF386957795EE
:100E90006795B395D9F73EF49095809570956195D7
:100EA0007F4F8F4F9F4F0895E89409C097FB3EF402
:100EB00090958095709561957F4F8F4F9F4F9923A7
:100EC000A9F0F92F96E9BB279395F6958795779525
:100ED0006795B795F111F8CFFAF4BB0F11F460FFE5
:100EE0001BC06F5F7F4F8F4F9F4F16C0882311F03D
:100EF00096E911C0772321F09EE8872F762F05C051
:100F0000662371F096E8862F70E060E02AF09A95EB
:100F1000660F771F881FDAF7880F9695879597F9E0
:100F2000089597F99F6780E870E060E008959FEF6B
:100F300080EC089500240A94161617061806090670
:100F4000089500240A94121613061406050608953F
:100F5000092E0394000C11F4882352F0BB0F40F4C7
:100F6000BF2B11F460FF04C06F5F7F4F8F4F9F4F07
:100F7000089557FD9058440F551F59F05F3F71F089
:100F80004795880F97FB991F61F09F3F79F08795F0
:100F90000895121613061406551FF2CF4695F1DF79
:100FA00008C0161617061806991FF1CF8695710509
:100FB000610508940895E894BB2766277727CB013D
:100FC00097F908950E94F20729ED3BE54EED5EE3A7
:100FD0000C943A0816F00C9431090C949707689415
:100FE0000C9491070E94C107A8F39923C1F3AEF3B3
:100FF000DF93CF931F930F93FF92C92FDD27882391
:101000002AF02197660F771F881FDAF720E030E07B
:1010100040E85FEB9FE3883920F0803E38F021966E
:101020008F770E944006E8E6F0E004C00E94400688
:10103000E5E9F0E00E943F098B01BE01EC01FB2EC7
:101040006F5771097595771F880B990B0E9456078A
:1010500028E132E741E35FE30E944D08AF2D98019C
:10106000AE01FF900F911F91CF91DF910E94570623
:101070000C94A8070E944D080C94A8070E949A0798
:1010800038F00E94A10720F0952311F00C949107ED
:101090000C94970711240C94DC070E94B90770F395
:1010A000959FC1F3950F50E0551F629FF001729F0D
:1010B000BB27F00DB11D639FAA27F00DB11DAA1F1C
:1010C000649F6627B00DA11D661F829F2227B00D69
:1010D000A11D621F739FB00DA11D621F839FA00DF4
:1010E000611D221F749F3327A00D611D231F849F44
:1010F000600D211D822F762F6A2F11249F5750409B
:101100009AF0F1F088234AF0EE0FFF1FBB1F661F15
:10111000771F881F91505040A9F79E3F510580F0DE
:101120000C9491070C94DC075F3FE4F3983ED4F3F2
:10113000869577956795B795F795E7959F5FC1F782
:10114000FE2B880F911D9695879597F90895FA01C2
:10115000EE0FFF1F309621053105A1F161157105D4
:1011600061F48038BFE39B0749F1689490388105AA
:1011700061F08038BFEF9B0741F099234AF5FF3FAC
:10118000E1053105210519F1E8940894E795D901A5
:10119000AA2329F4AB2FBE2FF85FD0F310C0FF5F56
:1011A00070F4A695E0F7F73950F019F0FF3A38F4EB
:1011B0009F779F930DD00F9007FC9058089546F0AD
:1011C0000C94970760E070E080E89FE308954FE794
:1011D0009F775F934F933F932F930E94F2072F9136
:1011E0003F914F915F910E943A080C94FF0829F4B7
:1011F00016F00C9491070C94DB070C9497070E944F
:10120000C107A8F39638A0F707F80F92E8942BE3EC
:101210003AEA48EB5FE70E9450080F920F920F9254
:101220004DB75EB70F920E94A809E2ECF0E00E9471
:101230003F094F915F91EF91FF91E595EE1FFF1FE1
:1012400049F0FE57E0684427EE0F441FFA95E1F796
:101250004195550B0E9472090F9007FE0C94660988
:1012600008959F3F31F0915020F4879577956795C9
:10127000B795880F911D9695879597F90895DF93F7
:10128000CF931F930F93FF92EF92DF927B018C011C
:10129000689406C0DA2EEF010E944D08FE01E89422
:1012A000A5912591359145915591A6F3EF010E94A5
:1012B0005706FE019701A801DA9469F7DF90EF90D5
:1012C000FF900F911F91CF91DF9108959B01AC0189
:1012D00060E070E080E89FE30C94AC060C9491070A
:1012E0000C9431090E94C107D8F39923C9F3940FD4
:1012F000511DA3F39150504094F059F0882332F0DF
:10130000660F771F881F91505040C1F79E3F5105CF
:101310002CF7880F911D9695879597F908955F3F53
:10132000ACF0983E9CF0BB27869577956795B7956E
:1013300008F4B1609395C1F7BB0F58F711F460FF43
:10134000E8CF6F5F7F4F8F4F9F4FE3CF0C94DC0749
:10135000FA01DC01AA0FBB1F9B01AC01BF5728F4A7
:10136000222733274427507820C0B75190F4AB2F61
:101370000024469537952795011CA395D2F30020AC
:1013800071F0220F331F441FB395DAF30ED00C9483
:101390003F0661307105A0E88A07B94630F49B0129
:1013A000AC016627772788279078309621F0208334
:1013B0003183428353830895AEE0B0E0E2EEF9E07A
:1013C0000C949D0C0D891E8986E08C831A830983F9
:1013D0008FEF9FE79E838D83AE01475E5F4F6F89DE
:1013E000788DCE0101960E94FE09EF81F885E00F0D
:1013F000F11F10822E96E4E00C94B90CABE0B0E043
:10140000E4E0FAE00C948F0C6C017B018A01FC0192
:1014100017821682838181FFCCC1CE0101963C01E7
:10142000F6019381F70193FD859193FF81917F01EF
:10143000882309F4BAC1853239F493FD859193FF6D
:1014400081917F01853229F4B60190E00E94F50B6D
:10145000E7CF912C212C312CFFE1F315D8F08B3202
:1014600079F038F4803279F08332A1F4232D2061B1
:101470001DC08D3261F0803369F4232D216016C0C8
:10148000832D8260382EE32DE4603E2E2AC0F32D9A
:10149000F8601DC037FC2DC020ED280F2A3040F029
:1014A0008E32B9F436FC81C1232D2064322E19C04E
:1014B00036FE06C08AE0989E200D1124922E11C09F
:1014C000EAE02E9E200D1124222EF32DF0623F2EF5
:1014D00008C08C3621F4832D8068382E02C08836EF
:1014E00041F4F70193FD859193FF81917F01811173
:1014F000B3CF982F9F7D9554933028F40C5F1F4FE6
:101500009FE399830DC0833631F0833771F08335C3
:1015100009F059C021C0F801808189830E5F1F4FF7
:1015200088248394912C530113C02801F2E04F0EBC
:10153000511CF801A080B18036FE03C0692D70E017
:1015400002C06FEF7FEFC5010E94EA0B4C018201E0
:10155000F32DFF773F2E16C0280122E0420E511CCA
:10156000F801A080B18036FE03C0692D70E002C092
:101570006FEF7FEFC5010E94DF0B4C01F32DF06888
:101580003F2E820133FC1BC0822D90E08816990605
:10159000B0F4B60180E290E00E94F50B2A94F4CFFB
:1015A000F50137FC859137FE81915F01B60190E02E
:1015B0000E94F50B21102A9421E0821A91088114CF
:1015C000910471F7E8C0843611F0893641F5F801CD
:1015D00037FE07C060817181828193810C5F1F4F4C
:1015E00008C060817181072E000C880B990B0E5F7B
:1015F0001F4FF32DFF763F2E97FF09C090958095E2
:10160000709561957F4F8F4F9F4FF0683F2E2AE076
:1016100030E0A3010E94310C882E861845C0853722
:1016200031F4232D2F7EB22E2AE030E025C0932DF9
:10163000997FB92E8F36C1F018F4883579F0B5C08E
:10164000803719F0883721F0B0C0E92FE061BE2E55
:10165000B4FE0DC0FB2DF460BF2E09C034FE0AC0DD
:10166000292F2660B22E06C028E030E005C020E118
:1016700030E002C020E132E0F801B7FE07C060812F
:101680007181828193810C5F1F4F06C060817181DF
:1016900080E090E00E5F1F4FA3010E94310C882E66
:1016A0008618FB2DFF773F2E36FE0DC0232D2E7F93
:1016B000A22E891458F434FE0BC032FC09C0832DCD
:1016C0008E7EA82E05C0B82CA32C03C0B82C01C058
:1016D000B92CA4FE0FC0FE01E80DF11D80818033FE
:1016E00021F49A2D997EA92E09C0A2FE06C0B394BA
:1016F000B39404C08A2D867809F0B394A3FC11C07A
:10170000A0FE06C0B21488F4280C922C9B180EC0C0
:10171000B21460F4B60180E290E00E94F50BB3943D
:10172000F7CFB21418F42B1802C0982C212CA4FE69
:1017300010C0B60180E390E00E94F50BA2FE17C036
:10174000A1FC03C088E790E002C088E590E0B60104
:101750000CC08A2D867859F0A1FE02C08BE201C030
:1017600080E2A7FC8DE2B60190E00E94F50B89149F
:1017700038F4B60180E390E00E94F50B9A94F7CF1D
:101780008A94F301E80DF11D8081B60190E00E947A
:10179000F50B8110F5CF222009F442CEB60180E28C
:1017A00090E00E94F50B2A94F6CFF601868197818E
:1017B00002C08FEF9FEF2B96E2E10C94AB0CFC0183
:1017C0000590615070400110D8F7809590958E0F6C
:1017D0009F1F0895FC016150704001900110D8F7DF
:1017E000809590958E0F9F1F08950F931F93CF9311
:1017F000DF93FB01238121FD03C08FEF9FEF2CC0FE
:1018000022FF16C046815781248135814217530734
:1018100044F4A081B1819D012F5F3F4F318320832C
:101820008C93268137812F5F3F4F3783268314C0E7
:101830008B01EC01FB010084F185E02D0995892BDA
:10184000E1F6D80116968D919C91179701961796FF
:101850009C938E931697CE01DF91CF911F910F919C
:101860000895FA01AA27283051F1203181F1E89436
:101870006F936E7F6E5F7F4F8F4F9F4FAF4FB1E083
:101880003ED0B4E03CD0670F781F891F9A1FA11D7E
:10189000680F791F8A1F911DA11D6A0F711D811D7F
:1018A000911DA11D20D009F468943F912AE0269F44
:1018B00011243019305D3193DEF6CF010895462FA3
:1018C0004770405D4193B3E00FD0C9F7F6CF462F84
:1018D0004F70405D4A3318F0495D31FD40524193ED
:1018E00002D0A9F7EACFB4E0A695979587957795AA
:1018F0006795BA95C9F700976105710508959B0131
:10190000AC010A2E06945795479537952795BA95B9
:10191000C9F7620F731F841F951FA01D08952F9292
:101920003F924F925F926F927F928F929F92AF926F
:10193000BF92CF92DF92EF92FF920F931F93CF93BC
:10194000DF93CDB7DEB7CA1BDB0B0FB6F894DEBF53
:101950000FBECDBF09942A88398848885F846E8479
:101960007D848C849B84AA84B984C884DF80EE80C3
:10197000FD800C811B81AA81B981CE0FD11D0FB6CC
:10198000F894DEBF0FBECDBFED010895F894FFCFF0
:101990003333134014AE073FF628DCBE3333134015
:1019A000CDCC4C3E6666E6BE4552524F52004C507E
:1019B000473A200025642070706D00534D4F4B4511
:1019C0003A200048756D69646974793A200025648D
:1019D0002E256425250054656D703A200025642E5F
:1019E0002564430057454C434F4D4500537572766F
:1019F00065696C6C616E636520416C61726D20413C
:101A0000637469766174656400414C4552543A20B0
:101A100046495245204445544543544544210041DC
:101A20004C4552543A2045415254485155414B453A
:101A30002044455445435445442100414C455254AB
:101A40003A2054484945462044455445435445446A
:101A50002100414C4552543A20474153204C4541C6
:061A60004B414745210047
:00000001FF
